S01200004C696E657472616365722E7372656309
S113000045C0000061C000006DC000005CC000007D
S11300105AC0000058C0000056C0000054C0000080
S113002052C0000050C000004EC000004CC0000090
S11300304AC0000048C0000046C0000044C00000A0
S113004065C0000040C000003EC000003CC000008D
S11300503AC0000038C0000036C0000034C00000C0
S113006032C0000030C000002EC000002CC00000D0
S11300702AC0000028C0000026C0000024C00000E0
S113008022C0000020C000001EC0000011241FBEBA
S1130090CFEFD0E1DEBFCDBF11E0A0E0B1E0E0E002
S11300A0F9E000E00BBF02C007900D92A033B10746
S11300B0D9F721E0A0E3B1E001C01D92A43AB20750
S11300C0E1F7D8D11BC49CCF1F920F920FB60F92A9
S11300D0112410926301109262010F900FBE0F90D1
S11300E01F9018951F920F920FB60F9211248F93A1
S11300F09F9381E090E090936301809362019F91CC
S11301008F910F900FBE0F901F9018951F920F9212
S11301100FB60F9211240BB60F924F925F926F920B
S11301207F928F929F92AF92BF92EF92FF920F9322
S11301301F932F933F934F935F936F937F938F936B
S11301409F93AF93BF93EF93FF93CF93DF93CDB779
S1130150DEB76097DEBFCDBF809150019091510111
S11301600196909351018093500183E882BF80915E
S11301705001909151018436910509F046C180E403
S113018087B980E090E012C026B1206426B927B177
S11301902F5F27B9349BFECF24B135B1FC01EE0F9C
S11301A0FF1FEE5AFE4F318320830196883091055C
S11301B05CF3E0906201F0906301E114F10409F44E
S11301C046C04BC0F801EE0FFF1FEE5AFE4F608190
S11301D07181072E000C880B990B79D24B015C01BD
S11301E0F801EE0FFF1FEE0FFF1FE05DFE4F2081B1
S11301F03181428153811BD318165CF4F801EE0F50
S1130200FF1FEE0FFF1FE05DFE4F80829182A282EE
S1130210B382F801EE0FFF1FEE0FFF1FE050FF4FF8
S11302202081318142815381C501B401B1D1882338
S11302305CF4F801EE0FFF1FEE0FFF1FE050FF4FBD
S113024080829182A282B3820F5F1F4F02C000E0BE
S113025010E0083011050CF4B5CFEA94EF2809F04A
S1130260D4C03CC0F701EE0FFF1FEE5AFE4F608171
S113027071818701000F111F000F111FF801E05059
S1130280FF4F80809180A280B380072E000C880BE2
S1130290990B1DD2A501940116D12B013C01F80143
S11302A0E05DFE4F6081718182819381A50194019B
S11302B00AD19B01AC01C301B2016ED120E030E050
S11302C048EC52E4B8D2F801EC59FE4F60837183D4
S11302D0828393839FEFE91AF90A02C0E12CF12C7F
S11302E088E0E816F1040CF4BDCF00E010E02FC064
S11302F0F801EE0FFF1FEE0FFF1FEC59FE4F608158
S113030071818281938120E030E048E452E440D15D
S1130310882384F4F801EE0FFF1FEE0FFF1FEC5744
S1130320FE4F80E090E0A0E8BFE380839183A28346
S1130330B3830BC0F801EE0FFF1FEE0FFF1FEC5746
S1130340FE4F10821182128213820F5F1F4F0830FA
S1130350110574F280E1E0E2F1E0DE011196019012
S11303600D928A95E1F7E12CF12C00E010E02DC00C
S1130370F701EE0FFF1FEE0FFF1FEC57FE4F8080BB
S11303809180A280B380F701EE0FFF1F81E090E01F
S11303908C0F9D1FE80FF91F60817181072E000CDF
S11303A0880B990B94D1A501940145D24B015C01B2
S11303B0B801110F880B990B8AD1A501940184D03F
S11303C053D18B019FEFE91AF90A88E0E816F1048A
S11303D07CF20115110539F48FE792E09BBD8ABDCB
S11303E099BD88BD12C011233CF48FE792E09BBDF8
S11303F08ABD19BC18BC09C01016110634F41BBC04
S11304001ABC8FE792E099BD88BD60960FB6F89448
S1130410DEBF0FBECDBFDF91CF91FF91EF91BF91B2
S1130420AF919F918F917F916F915F914F913F9188
S11304302F911F910F91FF90EF90BF90AF909F90DD
S11304408F907F906F905F904F900F900BBE0F90A6
S11304500FBE0F901F90189510929B0088E1809317
S11304609A0086E080939D001092980087E680931E
S113047099000895DFEFDABB10926100C7E8C6B9AE
S113048086E083BF81E087BF83E882BFE5DFD7BB17
S113049088E081BB8FE082B98AE083B990E897B99C
S11304A0C6B992EA9FBD99E19EBD93E099BF80933E
S11304B06A008FE193E097BD86BD1BBC1ABC19BCD2
S11304C018BC7894FFCF5058BB27AA270ED075C10B
S11304D066D130F06BD120F031F49F3F11F41EF45B
S11304E05BC10EF4E095E7FB51C1E92F77D180F3AE
S11304F0BA17620773078407950718F071F49EF51D
S11305008FC10EF4E0950B2EBA2FA02D0B01B9016B
S113051090010C01CA01A0011124FF27591B99F075
S1130520593F50F4503E68F11A16F040A22F232F81
S1130530342F4427585FF3CF469537952795A795D1
S1130540F0405395C9F77EF41F16BA0B620B730B78
S1130550840BBAF09150A1F0FF0FBB1F661F771FE9
S1130560881FC2F70EC0BA0F621F731F841F48F49E
S1130570879577956795B795F7959E3F08F0B3CF24
S11305809395880F08F09927EE0F9795879508950E
S1130590D9D008F481E008950CD00FC107D140F000
S11305A0FED030F021F45F3F19F0F0C0511139C191
S11305B0F3C014D198F39923C9F35523B1F3951BD0
S11305C0550BBB27AA2762177307840738F09F5F70
S11305D05F4F220F331F441FAA1FA9F333D00E2EDF
S11305E03AF0E0E830D091505040E695001CCAF74C
S11305F029D0FE2F27D0660F771F881FBB1F261711
S113060037074807AB07B0E809F0BB0B802DBF01E3
S1130610FF2793585F4F2AF09E3F510568F0B6C0FC
S113062000C15F3FECF3983EDCF3869577956795C0
S1130630B795F7959F5FC9F7880F911D9695879594
S113064097F90895E1E0660F771F881FBB1F6217B3
S113065073078407BA0720F0621B730B840BBA0B71
S1130660EE1F88F7E095089504D06894B111D9C0BD
S11306700895BCD088F09F5790F0B92F9927B751AF
S1130680A0F0D1F0660F771F881F991F1AF0BA9552
S1130690C9F712C0B13081F0C3D0B1E00895C0C031
S11306A0672F782F8827B85F39F0B93FCCF3869548
S11306B077956795B395D9F73EF4909580957095A5
S11306C061957F4F8F4F9F4F0895E89409C097FB22
S11306D03EF490958095709561957F4F8F4F9F4F15
S11306E09923A9F0F92F96E9BB279395F695879559
S11306F077956795B795F111F8CFFAF4BB0F11F41C
S113070060FF1BC06F5F7F4F8F4F9F4F16C08823C2
S113071011F096E911C0772321F09EE8872F762FF8
S113072005C0662371F096E8862F70E060E02AF039
S11307309A95660F771F881FDAF7880F9695879525
S113074097F90895990F0008550FAA0BE0E8FEEFFA
S113075016161706E807F907C0F012161306E40781
S1130760F50798F0621B730B840B950B39F40A267A
S113077061F0232B242B252B21F408950A2609F458
S1130780A140A6958FEF811D811D089597F99F675C
S113079080E870E060E008959FEF80EC0895002405
S11307A00A941616170618060906089500240A94D2
S11307B012161306140605060895092E0394000C58
S11307C011F4882352F0BB0F40F4BF2B11F460FFE7
S11307D004C06F5F7F4F8F4F9F4F089557FD905810
S11307E0440F551F59F05F3F71F04795880F97FBF1
S11307F0991F61F09F3F79F08795089512161306AB
S11308001406551FF2CF4695F1DF08C016161706D9
S11308101806991FF1CF869571056105089408950E
S1130820E894BB2766277727CB0197F908958ADFD9
S113083008F48FEF08950BD0C0CFB1DF28F0B6DFF6
S113084018F0952309F0A2CFA7CF1124EACFC6DF71
S1130850A0F3959FD1F3950F50E0551F629FF001CF
S1130860729FBB27F00DB11D639FAA27F00DB11D28
S1130870AA1F649F6627B00DA11D661F829F2227B1
S1130880B00DA11D621F739FB00DA11D621F839F38
S1130890A00D611D221F749F3327A00D611D231F0E
S11308A0849F600D211D822F762F6A2F11249F575C
S11308B050408AF0E1F088234AF0EE0FFF1FBB1F7F
S11308C0661F771F881F91505040A9F79E3F51051E
S11308D070F05CCFA6CF5F3FECF3983EDCF38695D7
S11308E077956795B795F795E7959F5FC1F7FE2BC9
S11308F0880F911D9695879597F90895F894FFCFE1
S11309000000FA440000FA440000FA440000FA44EB
S11309100000FA440000FA440000FA440000FA44DB
S1130920F8FFFCFFFEFFFFFF0100020004000800C7
S9030000FC
